:020000040800F2
:100000006804002049010008BF17000817170008FE
:10001000BD170008A9080008851A000800000000A4
:10002000000000000000000000000000C3170008EE
:10003000AB08000800000000C1170008C517000841
:100040006301000863010008630100086301000800
:1000500063010008630100086301000863010008F0
:1000600063010008630100086301000863010008E0
:1000700063010008630100086301000863010008D0
:1000800063010008630100086301000863010008C0
:1000900063010008630100086301000863010008B0
:1000A00063010008630100086301000863010008A0
:1000B0006301000863010008630100086301000890
:1000C0006301000863010008630100086301000880
:1000D00063010008791A0008630100086301000841
:1000E0006301000863010008630100086301000860
:1000F0006301000863010008630100086301000850
:10010000630100086301000863010008630100083F
:10011000630100086301000863010008630100082F
:10012000630100086301000863010008630100081F
:10013000DFF810D000F0DEF900480047DD1C0008B1
:10014000AFF3008068040020064880470648004757
:10015000FEE7FEE7FEE7FEE7FEE7FEE7FEE7FEE777
:10016000FEE7FEE72718000831010008D2B201E0DF
:1001700000F8012B491EFBD270470022F6E710B5AC
:1001800013460A4604461946FFF7F0FF204610BD05
:1001900010B5002200E0521C835C8C5CA34201D1AC
:1001A000002BF8D1D8B2E1B2401A10BD0FB400B59F
:1001B00089B00BA800906A4603480A9900F090F9AC
:1001C00009B05DF814FB0000100000200FB400B56A
:1001D0008DB010A909900B9000914FF0FF300A905C
:1001E00000200C9005480690054807906A4609A82B
:1001F0000F9900F047F90DB05DF814FBA104000859
:10020000BF0400082DE9FF5F1D464FF0FF3BD5E915
:10021000014691465F464FF00008A9697F1C01988E
:100220008847296A824688470028F6D1BAF1FF3FFD
:100230000CD024F4C064002E19DD600614D5BAF188
:100240002B0F09D0BAF12D0F0ED103E0584604B0A0
:10025000BDE8F09F44F48064A9697F1C0198884739
:10026000761E8246002E02DDBAF1300F03D0B9F1BE
:10027000000F26D032E0A969761E44F400747F1C7A
:10028000019888478246002E05DDBAF1780F06D026
:10029000BAF1580F03D0B9F1000F10D01EE0B9F138
:1002A000000F02D0B9F1100F18D1A969761E24F4FD
:1002B00000747F1C019888478246102002E00820C5
:1002C00000E00A20814609E008FB0908A969761EBA
:1002D00044F400747F1C019888478246002E05DD97
:1002E0004946504600F0BAF80028EDDAE96901986D
:1002F0008847A00502D46FF00100A8E7E00725D1E8
:10030000600613D5600502D5C8F1000000E0404644
:1003100029680A1D2A600968220501D5087015E0C0
:10032000220701D5088011E008600FE02868011D50
:1003300029600068210502D580F8008006E02107C9
:1003400002D5A0F8008001E0C0F8008038467EE7C2
:100350002DE9FF5FD2E901A74FF0000891699946A6
:100360001446DDF838B0464601988847054659EAF4
:100370000B0005D009E0A169761C01988847054665
:10038000216A284688470028F5D1681C03D05FEA17
:10039000CA7005D015E04FF0FF3004B0BDE8F09F03
:1003A0002068011D2160D0F800800AE05FEACA7071
:1003B00001D108F8015BA169761C7F1E019888476E
:1003C0000546002F1ADD681C18D0B9F1000F0DD0BA
:1003D000E81705EBD060421120F01F0059F82210F9
:1003E0002A1A012090400142E0D107E0BBF1000F42
:1003F000DCD1216A284688470028D7D0E1690198D6
:100400008847BBF1000F07D1002E05DD5FEACA70F7
:1004100002D1002188F80010A068B84203DDBBF1CA
:10042000000F03D017B16FF00100B6E73046B4E714
:1004300030B50B46014600202022012409E021FAB4
:1004400002F59D4205D303FA02F5491B04FA02F5B1
:100450002844151EA2F10102F1DC30BD3A2800D279
:10046000303820F02002412A01D3A2F1370088421F
:1004700001D34FF0FF3070470268114413780160D8
:1004800018467047D1600449516104491162002146
:100490001161114600F05CB87904000845050008B8
:1004A000426842B1016811F8013B23B1521EC0E914
:1004B0000012184670470121C160881E70474268CB
:1004C0005AB1C368016843B983688B4205D0491E9D
:1004D000521CC0E90012002070474FF0FF307047F7
:1004E000024B9361024BD361FFF7CCBFA11C000804
:1004F00035050008064C074D06E0E06840F00103B2
:1005000094E8070098471034AC42F6D3FFF714FE86
:10051000481E0008681E0008094910B508784C1CE0
:1005200018B1401E0870205C10BD00210720ABBE32
:10053000207010BD02490878421C0A707047000004
:1005400018000020C0B24FF4F05100F099B900003B
:100550002DE9F34F8BB04FF0000801F10C000C4671
:100560004FF0010B46460DF1080A01906269012126
:1005700001989047051E2DD0252D2CD0216A884743
:10058000C0B16269012101989047216A884700281B
:10059000F7D1411E62690198904700E0761CA1697D
:1005A0000B988847216A88470028F7D1E1690B98A2
:1005B0008847DBE7A1690B9888470746A84201D125
:1005C000761CD3E7E1690B9888477F1C02D1B8F10C
:1005D000000F6FD047E1002762693D463946019818
:1005E00090472A2804D1626901210198904701258A
:1005F000DFF888926269012101989047A0F13001EB
:100600000A290AD24F45E5DC07EB870100EB4107D9
:10061000303FDFD445F01005ECE7E90601D46FF078
:1006200000476C280AD04C2814D0682815D06A28B6
:100630000DD074281CD07A281AD01DE062690121DF
:10064000019890476C2802D045F0040514E045F06D
:1006500002050DE045F020050AE0626901210198DC
:100660009047682802D045F0080505E045F400658C
:100670006269012101989047C4E9015765283DD07E
:1006800019DC58287AD00CDC452837D004DC252822
:1006900026D0412831D131E046282FD047282CD10F
:1006A0002CE05B2877D0612828D063287CD0642890
:1006B00023D15AE0D1E06F2848D008DC66281DD04D
:1006C00067281BD0692821D06E2816D127E0702812
:1006D00045D0732868D0752847D078280DD14DE0D3
:1006E000A1690B988847054625283FF469AFE16961
:1006F0000B9888476D1C3FF46AAFB4E023466A4606
:100700006FF001000B99AFF300809FE045F04000CF
:100710006060A80723464FF0000236D43EE0E807A9
:100720007FF447AF2068011D21600068290501D5CD
:1007300006701BE7290701D5068017E7A90703D52F
:10074000F117C0E9006111E706600FE745F04000CE
:100750006060A80723464FF0080216D41EE040F65A
:100760000E0125EA0100606016E045F0400060607F
:10077000A80723464FF00A0207D40FE045F04000D7
:100780006060A80708D5234610226FF001000B997E
:10079000AFF300805AE007E0234610226FF001001B
:1007A0000B99FFF72FFD51E04FF000094F464B46E4
:1007B000632802D05B2807D041E02079C00601D42D
:1007C0000120A06001273AE0626901210198904769
:1007D0005E2805D14FF001096269494601989047AA
:1007E000216939B900210A46534643F82120491CA2
:1007F0000829FADBB0B3216969B9C11700EBD162EE
:1008000053110AEB830122F01F02821A01200B68A8
:10081000904003430B6062690121019890475D2875
:10082000E8D1B9F1000F09D00020514651F820203D
:10083000D24341F82020401C0828F7DB02AB2246B7
:1008400000976FF001000B99FFF782FD00280CDA8A
:10085000401C08D1BBF1000F05D04FF0FF300DB0A8
:10086000BDE8F08FFFE74046F9E7E90701D108F15D
:10087000010806444FF0000B78E60000CCCCCC0C0D
:100880007F2801D9002208E0064A02EB5002C00787
:10089000127800D1120902F00F02012090400840A6
:1008A00070470000061E0008FEE7704772B6FEE7BC
:1008B00010B590F821100022022905D0042181638F
:1008C00080F82020012010BD01680B6823F00E0382
:1008D0000B6001680B6823F001030B6090F8403057
:1008E000C46B012101FA03F3636080F8211080F8E2
:1008F0002020104610BD00002DE9F05F90F8211077
:100900000024022903D004218163012485E00168C9
:100910000A6822F00E020A6001680A6822F00102E9
:100920000A603F4E3E4FB215DFF8F4C0DFF8F0909A
:10093000DFF8ECA0DFF8E8B0DFF8E4E00168783F2A
:1009400013011502ACF1640CA9F15009AAF13C0A9B
:10095000ABF1280BAEF1140E4FF48018B14227D939
:10096000B9420ED0614512D049451DD0514518D02D
:10097000594518D0714501D1424615E0294EB14282
:1009800001D1012210E0274E1436B14201D11022CC
:100990000AE0244E2836B14206D0224A3C32914227
:1009A00001D11A4600E02A461E49091F0A602BE0C1
:1009B000B94213D0614517D0494522D051451DD0C9
:1009C00059451DD0714501D142461AE0B14202D1CC
:1009D0004FF0807215E0134EB14201D1012210E0B8
:1009E000104E1436B14201D110220AE00D4E2836C5
:1009F000B14206D00B4A3C32914201D11A4600E086
:100A00002A46074980394A60012180F821100021D7
:100A100080F82010416B01B188472046BDE8F09F67
:100A200080000240080402402DE9F84FDFF8C89129
:100A30000024A9F1040B23460F2709F1040AABF1A6
:100A4000040ED1E00125A54006EA0502AA4276D1AE
:100A5000DFF8A8C14E68A6EB0C0866452BD00DDC6C
:100A6000032E34D005DC36B3012E19D0022E2FD13F
:100A70001BE0112E16D0122E2AD119E0B8F5881FCE
:100A800019D006DCB8F5803F15D0B8F5801F1FD10E
:100A900011E0B8F5001F0ED0B8F5041F18D10AE018
:100AA000CB6815E0CB681B1D12E0CB6808330FE064
:100AB000CB680C330CE08B682BB1012B4FF0080393
:100AC00003D0456104E0042302E0056100E0002357
:100AD000FF2A01D8064601E000F104064FEA84052A
:100AE00001D9A5F12005D6F8008007FA05FC28EA0F
:100AF0000C0803FA05F548EA0508C6F800804D68B9
:100B0000ED0070D53E4DAE6946F00106AE61AD69AF
:100B100024F0030605F0010500953A4D06EB050C9F
:100B2000DCF80850A607360F07FA06F825EA08058C
:100B3000DFF8D480404503D14FF0000825E052E0B3
:100B4000DFF8C880404502D14FF001081DE0DFF812
:100B5000C080404502D14FF0020816E0DFF8B480B3
:100B6000404502D14FF003080FE0DFF8AC8040456C
:100B700002D14FF0040808E0DFF8A080404502D120
:100B80004FF0050801E04FF0060808FA06F848EAB9
:100B90000508CCF808804D68D9F80060ED024D4694
:100BA00001D5164300E096432E604D68DAF80060E8
:100BB000AD02554601D5164300E096432E604D68C0
:100BC000DBF80060AD035D4601D5164300E09643B7
:100BD0002E604D68DEF80060ED03754601D51643C2
:100BE00000E096432E60641C0A681646E2407FF4DB
:100BF00029AFBDE8F88F0000080401400000111083
:100C0000001002400000014000080140000C0140BB
:100C1000001001400014014000180140001C014078
:100C2000C26821EA02030A4043EA024101617047B7
:100C30000AB1016170470904FBE7000001488068C0
:100C400070470000000000200248816802781144CB
:100C50008160704700000020074810B5016841F02E
:100C600010010160032000F075F80F2000F006F875
:100C700000F024F8002010BD0020024070B50D4D9A
:100C800004464FF47A712878B1FBF0F00A490968FC
:100C9000B1FBF0F000F0DCFA48B9102C07D20022CA
:100CA0002146501E00F036F800206C6070BD012017
:100CB00070BD0000000000200C0000200C4808B5AA
:100CC000816941F001018161816901F001010091B7
:100CD000C16941F08051C161C06900F0805000904D
:100CE0000448416821F0E06141F00071416008BDB5
:100CF0000010024000000140002809DB00F01F0244
:100D0000012191404009800000F1E020C0F800116D
:100D100070470000F0B40E4B1B680C46C3F302236F
:100D2000C3F10705042D00D90425191D072901D297
:100D3000002300E0DB1E012606FA05F1491E2140D2
:100D400099409E40761E16403143F0BC00F0ACBE88
:100D50000CED00E0064900F0070208684FF6FF03BB
:100D6000184040EA0220034A104308607047000020
:100D70000CED00E00000FA052DE9F0470F460500F4
:100D800061D0434E306800F00700B84209D23068A5
:100D900020F0070038433060306800F00700B842A8
:100DA00051D128683B4C810712D5400703D56068B4
:100DB00040F4E06060602878000703D5606840F484
:100DC000605060606068A96820F0F00008436060CF
:100DD0002878C00728D06868012810D02168022828
:100DE00010D0890700292EDA616821F00301014340
:100DF0006160FFF723FF804641F288390DE02168EA
:100E00008903EFE78901EDE7FFF718FFA0EB080181
:100E1000494502D90320BDE8F0876068696800F0A1
:100E20000C00B0EB810FEFD1306800F00700B84242
:100E30000BD9306820F0070038433060306800F08C
:100E40000700B84201D00120E5E72878400705D522
:100E50006068E96820F4E060084360602878000773
:100E600006D56068296920F4605040EAC1006060DE
:100E700000F038F86168084AC1F30311515CC840BA
:100E80000649086006480068FFF7F8FE0020C2E740
:100E90000020024000100240EE1D00080C0000205F
:100EA000040000200448054900684968044AC1F369
:100EB0000221515CC84070470C0000200010024025
:100EC000FE1D00080448054900684968044AC1F34A
:100ED000C221515CC84070470C0000200010024045
:100EE000FE1D00080E4A51680E4801F00C03042B49
:100EF00011D0082B0FD10C48C1F38343C903C05C48
:100F00000AD55168084AC1F34041921E515C054A16
:100F10005043B0FBF1F0704704494843704700006C
:100F20000010024000127A00DE1D000800093D009A
:100F30002DE9F84F040070D02078C04DC00749D08B
:100F40006868C0F38100012807D06868C0F3810099
:100F5000022809D16868C00306D52868800339D5FE
:100F600060680028E7D035E06068B0F5803F0BD0BE
:100F700010B1B0F5A02F11D0286820F4803028607F
:100F8000286820F4802002E0286840F4803028603F
:100F9000606890B1FFF752FE06460AE0286840F408
:100FA00080202860F0E700BFFFF748FE801B642820
:100FB00073D828688003F7D50CE0FFF73FFE06469C
:100FC00005E000BFFFF73AFE801B6428F0D82868D0
:100FD0008003F7D420789A4E80074FF001094FF034
:100FE000000839D5686810F00C0F07D06868C0F3A6
:100FF0008100022809D16868C00306D428688007E8
:1010000014D52069012808D110E02069B0B1C6F8D4
:101010000090FFF713FE074605E00AE1FFF70EFE1A
:10102000C01B0228C4D828688007F7D528686169E2
:1010300020F0F80040EAC10028600DE0C6F800800A
:10104000FFF7FCFD074604E0FFF7F8FDC01B022890
:1010500023D828688007F7D4207800072CD5794852
:10106000A169D9B1C0F80090FFF7E8FD074604E098
:10107000FFF7E4FDC01B02280FD8686A8007F7D588
:1010800071484FF4FA510068B0FBF1F0009000BFD6
:101090000098411E0091FAD20EE080E0C0F8008076
:1010A000FFF7CCFD074604E0FFF7C8FDC01B022890
:1010B00075D8686A8007F7D42078400760D5E8695A
:1010C0000027C00008D4E86940F08050E861E86972
:1010D000012700F0805000905C480168C90513D4D6
:1010E0000168834641F480710160FFF7A7FD8246E5
:1010F00006E000BFFFF7A2FDA0EB0A0064284ED86F
:10110000DBF80000C005F5D5E06801280AD008B179
:10111000052813D0286A20F001002862286A20F0F0
:10112000040002E0286A40F001002862E06841F211
:10113000883B98B1FFF782FD82460BE0286A40F0B9
:1011400004002862EEE700BFFFF778FDA0EB0A017C
:1011500059455AD8286A8007F6D50CE0FFF76EFD8E
:10116000824605E0FFF76AFDA0EB0A0159454CD81D
:10117000286A8007F6D41FB1E86920F08050E86142
:10118000E06988B36968C1F38101022944D002286B
:10119000C6F8608004D0FFF751FD044638E034E023
:1011A000FFF74CFD074604E0FFF748FDC01B02288F
:1011B0002BD828688001F7D4206AB0F5803F05D18C
:1011C0006868A16820F4003008436860D4E9080129
:1011D0000843696821F4741108436860C6F8609098
:1011E000FFF72CFD044606E025E000BFFFF726FDD3
:1011F000001B022809D828688001F7D51BE000BF32
:10120000FFF71CFD001B022802D90320BDE8F88F60
:1012100028688001F4D40EE00128F7D06868226ABB
:1012200000F48031914204D1616A00F47010884268
:1012300001D00120EAE70020E8E7000000100240AA
:1012400000004242800442420C0000200070004036
:1012500010B5401EB0F1807F01D3012010BD4FF0CA
:10126000E02460610F21601700F01EFC0020A061E7
:1012700007202061002010BD70477047F8B5016855
:1012800004460868CA684B6910F00F0F4FF000055C
:1012900059D003F0010602F49077374365D0C107B7
:1012A00005D0D10503D5616C41F0010161644107AE
:1012B00005D5D90703D0616C41F002016164810753
:1012C00005D5D90703D0616C41F0040161640107C1
:1012D00007D502F02001314303D0616C41F00801D1
:1012E0006164616C00293AD0800604D5900602D56D
:1012F000204600F0C8FA20684069616CC0F3801095
:10130000090700D460B3204600F096FA20684069CF
:10131000400621D52068143050E8001F21F040011C
:1013200040E80012002AF5D1E06BA8B16D49416395
:10133000E06BFFF7E1FA002811D0E06B416B01B0E0
:10134000BDE8F040084783060FD593060DD520462B
:10135000BDE8F84000F097BA2046FFF78EFFF8BDD1
:101360002046FFF78AFF6564F8BD266B2023012E17
:101370007CD1C6067AD5D60678D50868486800902C
:1013800048694FF00206400640D5E16B08684068A6
:101390000004000CE8D0A28D8242E5D9E08588697E
:1013A00020282DD020680C3050E8001F21F48071D7
:1013B00040E80012002AF5D12068143050E8001FE0
:1013C00021F0010140E80012002AF5D12068143014
:1013D00050E8001F21F0400140E80012002AF5D13A
:1013E00084F84230256320680C3050E8001F21F05B
:1013F000100140E80012002AF5D1E06BFFF758FA1F
:101400006663A08DE18D401A81B22AE0A08DE18D46
:10141000401A81B2E08D0028A6D00029A4D022680D
:101420000C3252E8000F20F4907042E80007002FC1
:10143000F5D12068143050E8002F22F0010240E876
:101440000027002FF5D184F84230256320680C3046
:1014500050E8002F22F0100240E80023002BF5D1C5
:1014600066632046FFF708FFF8BDFFE705062BD5AA
:10147000150629D594F841002128F5D1A068B0F5CA
:10148000805F01D12069B0B1206A411C21622168CE
:1014900000784860E08C401E0004000CE084E3D13A
:1014A0002068C16821F08001C1602068C16841F0F6
:1014B0004001C160D8E7206A0088C0F30800486096
:1014C000206A801C2062E5E74006CDD55006CBD5CA
:1014D000CA68204622F04002CA6084F8413000F019
:1014E00019F9C1E72918000870B5040004D094F870
:1014F0004100002510B106E0012070BD84F8405085
:10150000204600F023F8242084F841002068C168B8
:1015100021F40051C160204600F016FA20680169EC
:1015200021F4904101612068416921F02A01416163
:101530002068C16841F40051C1606564202084F8CE
:10154000410084F842006563002070BD30B585B06D
:10155000002400940194029403940068184988427E
:101560002CD11848816941F480418161816901F47D
:1015700080410491816941F0040181618069124DCB
:1015800000F0040004904FF40070009002200190DD
:101590000320039069462846FFF746FA2815CDE94F
:1015A0000004694628460294FFF73EFA00221146DD
:1015B0002520FFF7AFFB2520FFF79EFB05B030BDD0
:1015C0000038014000100240000801402DE9F843B6
:1015D000044690F84200994616460D46202802D04F
:1015E0000220BDE8F883ADB1A6B1002060642221DD
:1015F00084F842102063FFF721FBA6858046E6852C
:10160000A0684FF48057B84201D1206920B12E461E
:10161000002526E00120E4E7002622E043460022E0
:1016200020212046CDF8009000F0EAF908B103200F
:10163000D7E726B1A068B8421BD038B108E02068CF
:101640004068C0F3080025F8020B07E0206980B16C
:101650002068406800F07F0006F8010BE08D401E16
:10166000E085E08D0028D9D1202084F842000020B8
:10167000B7E720684068EFE770472DE9F843044674
:1016800090F841001F4616460D46202802D0022041
:10169000BDE8F8837DB176B100206064212084F834
:1016A0004100FFF7CBFAA6848046E684A068B0F537
:1016B000805F02D003E00120EAE7206910B12E46E6
:1016C00000250EE000260CE08021204600F098F96D
:1016D000A0B9AEB116F8010B21684860E08C401E3D
:1016E000E084E08C43464FF0000200970028EBD1E5
:1016F0004FF04001204600F083F930B10320C7E7E6
:1017000035F8020BC0F30800E6E7202084F841001A
:101710000020BDE77047FEE730B585B000241748CC
:101720000094019402940394816941F01001816155
:10173000816901F010010491816941F0200181610A
:10174000816901F020010491816941F00401816106
:1017500080690B4D00F0040004900022012128460E
:10176000FFF766FA0220012103900091CDE90114F0
:1017700069462846FFF758F905B030BD0010024011
:10178000001001400C4810B50A4901604FF4E131E6
:101790004160002181600C22C160C0E904128161B6
:1017A000C161FFF7A1FE002803D0BDE81040FFF79C
:1017B0007DB810BD003801401C000020FEE7FEE7A8
:1017C00070477047FFF740BA30B58FB028216846A0
:1017D000FEF7D3FC14210AA8FEF7CFFC0121080470
:1017E000CDE900100024029402250491CDE90750B0
:1017F0004FF4E01009906846FFF79AFB08B172B603
:10180000FEE70F20CDE90A054FF48060CDE90C40DA
:1018100002210AA80E94FFF7AFFA002801D072B691
:10182000FEE70FB030BD704710B5406A0021C1859A
:10183000C184FFF722FD10BD01680C3151E8002F73
:1018400022F4907241E80023002BF5D10168143195
:1018500051E8002F22F0010241E80023002BF5D1CE
:10186000016B012909D101680C3151E8002F22F0E8
:10187000100241E80023002BF5D1202180F842100E
:1018800000210163704708B590F84210222901D069
:10189000022008BD82684FF480539A4201D1016949
:1018A00021B1816A9A421BD04AB10AE00268816A7A
:1018B0005268C2F308020A80816A891C08E0026942
:1018C00072B10268526802F07F020A70816A491C94
:1018D0008162C18D491E0904090CC18503D01BE03A
:1018E00002685268F1E70168CA6822F02002CA6003
:1018F0000168CA6822F48072CA6001684A6922F0ED
:1019000001024A61202180F8421000214163026BEC
:10191000012A03D0FFF7B0FE002008BD0163016873
:101920000C3151E8002F22F0100241E80023002B77
:10193000F5D101680A68D20602D50A6849680091A3
:10194000818DFFF799FCE7E770B5044600680169EF
:10195000E26821F44051114301612169A068084304
:10196000616908432168CA6841F20C639A430243E3
:10197000CA6020684169A26921F440711143416144
:101980001E492068884202D1FFF79CFA01E0FFF768
:1019900089FA00EBC00101EB00126068642180004D
:1019A000B2FBF0F3B3FBF1F36FF018067343B2FB35
:1019B000F0F5B2FBF0F605EB8305322303EB0515DA
:1019C000B5FBF1F5B6FBF1F605F0F00505EB0615F4
:1019D000B2FBF0F6B2FBF0F0B0FBF1F06FF01802E2
:1019E000504306EB800003EB0010B0FBF1F02168E0
:1019F00000F00F002844886070BD000000380140EE
:101A00002DE9F041984617460E460446069D27E00C
:101A1000681C25D02DB1FFF711F9A0EB0800A842F2
:101A20001ED920680C3050E8001F21F4D07140E826
:101A30000012002AF5D12068143050E8001F21F070
:101A4000010140E80012002AF5D1202084F841006D
:101A500084F84200002084F840000320BDE8F081B3
:101A60002068006836EA000004D00020B842CFD0D9
:101A70000020F3E70120F9E70148FFF7FFBB000072
:101A80001C000020FEE700000FB4054B10B503A9B1
:101A9000044A029800F028F810BC5DF814FB00001E
:101AA000BD1C0008140000200907090E002804DBF3
:101AB00000F1E02080F80014704700F00F0000F102
:101AC000E02080F8141D704702E008C8121F08C10A
:101AD000002AFAD170477047002001E001C1121FAF
:101AE000002AFBD1704700002DE9FF4F8BB09A46CA
:101AF0000F460546002606E025280BD052460D99D4
:101B000090476D1C761C28780028F5D10FB0304620
:101B1000BDE8F08F0024A0460122604900E00443A4
:101B200015F8013F203B02FA03F00842F7D128786C
:101B30002E2817D115F8010F44F004042A280ED0DE
:101B40006FF02F022878A0F1300109290AD808EB9C
:101B5000880102EB410100EB01086D1CF2E757F828
:101B6000048B6D1C287869283ED006DC0028CDD077
:101B700063280BD0642804D136E0732810D0752870
:101B80004BD052460D999047761C85E017F8040B10
:101B90008DF8000000208DF80100E946012003E0E7
:101BA00057F8049B4FF0FF3061074FF0000401D459
:101BB0000AE0641C44450DDA8442FADB19F804108B
:101BC0000029F6D106E0641C8442FCDB19F80410FD
:101BD0000029F8D1264404E019F8010B52460D996A
:101BE0009047641EF8D257E001CF4FF00A0B00284F
:101BF00002DA40422D2102E0210504D52B218DF887
:101C00002410012103E0E10705D02021F7E70DF1C1
:101C1000200908910CE00021F9E701CF4FF00A0BF1
:101C2000F9E75946FEF704FC01F1300209F8012DED
:101C30000028F6D1ADEB090000F1200B600701D4BC
:101C40004FF00108D84502DDA8EB0B0000E00020B2
:101C50008046002406E009A85246005D0D99904791
:101C6000641C761C08988442F5DB04E03020524660
:101C70000D999047761CB8F10001A8F10108F5DC38
:101C800005E019F8010B52460D999047761CBBF1FF
:101C90000001ABF1010BF4DC6D1C34E709280100F5
:101CA00008B54FF6FF73012269460348FFF78EFC23
:101CB0009DF8000008BD00001C00002038B5044657
:101CC0008DF800000223012269460248FFF7D5FC87
:101CD000204638BD1C000020FFF7E2BF8CB0FEF7A5
:101CE000BBFFFFF771FDFFF717FDFFF74BFD21A0CD
:101CF000FFF7CAFE694622A0FEF758FA2248FFF70E
:101D0000EBFF22A16846FEF743FA0028F2D122A099
:101D1000FFF7BAFE69462AA0FEF748FA1A48FFF70D
:101D2000DBFF694626A0FEF741FA1748FFF7D4FF0C
:101D3000694623A0FEF73AFA1348FFF7CDFF21A129
:101D40006846FEF725FA0028E1D11F4C69461FA01E
:101D5000FEF72CFA05AB0AAA1EA16846FEF736FA72
:101D60009DF814003028F1D101212046FEF758FFDC
:101D7000ECE7000041542B5253540D0A00000000C0
:101D8000255B5E0D0A5D00001000002057494649A2
:101D900020474F542049500041542B43495053543D
:101DA0004152543D22544350222C223139322E319B
:101DB00036382E312E34222C383038300D0A0000BF
:101DC000257300004F4B000000100140252A34739A
:101DD0002573000025643A25730000000102020308
:101DE0000405060708090A0B0C0D0E0F1010000061
:101DF00000000000000001020304060708090000BB
:101E0000000001020304DDDDDDDDDCBBBBDDDDDD6B
:101E1000DDDDDDDDDDDD9888888888888888777756
:101E200077777788888885555556666666666666CC
:101E30006666666888888333333222222222222211
:101E400022222228888D0000681E00080000002041
:101E50001C000000C81A0008841E00081C00002096
:101E60004C040000D81A0008010000001000000017
:101E7000000000000024F40000000000000000004A
:041E8000000000005E
:0400000508000131BD
:00000001FF
