:020000040800F2
:1000000008050020490100080524000847220008CF
:100010000124000835070008452B000800000000F7
:10002000000000000000000000000000352400086F
:1000300039070008000000000924000837240008E0
:100040006301000863010008630100086301000800
:1000500063010008630100086301000863010008F0
:1000600063010008630100086301000863010008E0
:1000700063010008630100086301000863010008D0
:1000800063010008630100086301000863010008C0
:1000900063010008630100086301000863010008B0
:1000A00063010008630100086301000863010008A0
:1000B000A924000863010008630100086301000827
:1000C0006301000863010008630100086301000880
:1000D00063010008352B0008630100086301000874
:1000E0006301000863010008630100086301000860
:1000F0006301000863010008630100086301000850
:10010000630100086301000863010008630100083F
:10011000630100086301000863010008630100082F
:10012000630100086301000863010008630100081F
:10013000DFF810D000F010F900480047512D0008FA
:10014000AFF30080080500200648804706480047B6
:10015000FEE7FEE7FEE7FEE7FEE7FEE7FEE7FEE777
:10016000FEE7FEE7A524000831010008D2B201E055
:1001700000F8012B491EFBD270470022F6E710B5AC
:1001800013460A4604461946FFF7F0FF204610BD05
:100190000FB400B589B00BA800906A4603480A99CD
:1001A00000F0D0F809B05DF814FB0000200000203A
:1001B0002DE9FF5F1D464FF0FF3BD5E90146914613
:1001C0005F464FF00008A9697F1C01988847296A9B
:1001D000824688470028F6D1BAF1FF3F0CD024F4BC
:1001E000C064002E19DD600614D5BAF12B0F09D0BA
:1001F000BAF12D0F0ED103E0584604B0BDE8F09FD0
:1002000044F48064A9697F1C01988847761E824661
:10021000002E02DDBAF1300F03D0B9F1000F26D065
:1002200032E0A969761E44F400747F1C0198884767
:100230008246002E05DDBAF1780F06D0BAF1580FCC
:1002400003D0B9F1000F10D01EE0B9F1000F02D0B9
:10025000B9F1100F18D1A969761E24F400747F1C1F
:10026000019888478246102002E0082000E00A201A
:10027000814609E008FB0908A969761E44F4007468
:100280007F1C019888478246002E05DD494650466E
:1002900000F04AF80028EDDAE96901988847A005DE
:1002A00002D46FF00100A8E7E00725D1600613D55E
:1002B000600502D5C8F1000000E0404629680A1D2B
:1002C0002A600968220501D5087015E0220701D5CA
:1002D000088011E008600FE02868011D29600068AF
:1002E000210502D580F8008006E0210702D5A0F89C
:1002F000008001E0C0F8008038467EE730B50B464C
:10030000014600202022012409E021FA02F59D4245
:1003100005D303FA02F5491B04FA02F52844151E19
:10032000A2F10102F1DC30BD3A2800D2303820F0D1
:100330002002412A01D3A2F13700884201D34FF0B5
:10034000FF307047024B9361024BD36100F032B82B
:10035000152D000899030008064C074D06E0E068DB
:1003600040F0010394E8070098471034AC42F6D3FC
:10037000FFF7E2FE682E0008882E0008094910B534
:1003800008784C1C18B1401E0870205C10BD00217C
:100390000720ABBE207010BD02490878421C0A70CD
:1003A00070470000280000200268114413780160A3
:1003B00018467047D1600449516104491162002117
:1003C0001161114600F00AB8A9030008D103000822
:1003D000C0B24FF4F05100F099B900002DE9F34F8D
:1003E0008BB04FF0000801F10C000C464FF0010BF0
:1003F00046460DF1080A0190626901210198904773
:10040000051E2DD0252D2CD0216A8847C0B16269E8
:10041000012101989047216A88470028F7D1411EA1
:1004200062690198904700E0761CA1690B988847A3
:10043000216A88470028F7D1E1690B988847DBE7F4
:10044000A1690B9888470746A84201D1761CD3E7DB
:10045000E1690B9888477F1C02D1B8F1000F6FD07B
:1004600047E1002762693D463946019890472A28AE
:1004700004D162690121019890470125DFF8889233
:100480006269012101989047A0F130010A290AD23E
:100490004F45E5DC07EB870100EB4107303FDFD438
:1004A00045F01005ECE7E90601D46FF000476C2831
:1004B0000AD04C2814D0682815D06A280DD074288A
:1004C0001CD07A281AD01DE062690121019890475A
:1004D0006C2802D045F0040514E045F002050DE05B
:1004E00045F020050AE062690121019890476828DB
:1004F00002D045F0080505E045F400656269012178
:1005000001989047C4E9015765283DD019DC582867
:100510007AD00CDC452837D004DC252826D04128A9
:1005200031D131E046282FD047282CD12CE05B2850
:1005300077D0612828D063287CD0642823D15AE062
:10054000D1E06F2848D008DC66281DD067281BD072
:10055000692821D06E2816D127E0702845D073284D
:1005600068D0752847D078280DD14DE0A1690B9847
:100570008847054625283FF469AFE1690B9888470D
:100580006D1C3FF46AAFB4E023466A466FF0010089
:100590000B99AFF300809FE045F040006060A80732
:1005A00023464FF0000236D43EE0E8077FF447AF21
:1005B0002068011D21600068290501D506701BE730
:1005C000290701D5068017E7A90703D5F117C0E968
:1005D000006111E706600FE745F040006060A80782
:1005E00023464FF0080216D41EE040F60E0125EA1D
:1005F0000100606016E045F040006060A8072346F7
:100600004FF00A0207D40FE045F040006060A807F1
:1006100008D5234610226FF001000B99AFF300803C
:100620005AE007E0234610226FF001000B99FFF714
:10063000BFFD51E04FF000094F464B46632802D002
:100640005B2807D041E02079C00601D40120A060DA
:1006500001273AE062690121019890475E2805D19F
:100660004FF001096269494601989047216939B9FB
:1006700000210A46534643F82120491C0829FADB89
:10068000B0B3216969B9C11700EBD16253110AEB0C
:10069000830122F01F02821A01200B68904003435D
:1006A0000B6062690121019890475D28E8D1B9F19A
:1006B000000F09D00020514651F82020D24341F8C4
:1006C0002020401C0828F7DB02AB224600976FF081
:1006D00001000B99AFF3008000280CDA401C08D110
:1006E000BBF1000F05D04FF0FF300DB0BDE8F08F2B
:1006F000FFE74046F9E7E90701D108F101080644A0
:100700004FF0000B78E60000CCCCCC0C7F2801D950
:10071000002208E0064A02EB5002C007127800D11E
:10072000120902F00F0201209040084070470000BB
:10073000262E000800BFFEE7704772B600BFFEE736
:100740000146002291F82100022808D00420886385
:1007500000BF002081F8200000BF0120704708681A
:10076000006820F00E000B6818600868006820F030
:1007700001000B68186091F8403001209840CB6B65
:100780005860012081F8210000BF002081F820007E
:1007900000BF1046E2E7000070B50446002594F85B
:1007A0002100022803D00420A0630125C1E02068B5
:1007B000006820F00E00216808602068006820F0C2
:1007C0000100216808605C492068884252D95A4972
:1007D00078392068884201D1012047E056496439C0
:1007E0002068884201D1102040E0534950392068E8
:1007F000884201D1801539E04F493C392068884250
:1008000001D1801432E04C4928392068884202D155
:100810004FF480302AE0484914392068884202D1D8
:100820004FF4801022E044492068884201D14004FE
:100830001CE042492068884201D1012016E03F496E
:1008400014312068884201D110200FE03B49283143
:100850002068884201D1801508E038493C31206881
:10086000884201D1801401E04FF480303349091FE0
:10087000086051E0304978392068884201D1012070
:1008800047E02D4964392068884201D1102040E0BA
:10089000294950392068884201D1801539E026491C
:1008A0003C392068884201D1801432E0224928393D
:1008B0002068884202D14FF480302AE01E49143962
:1008C0002068884202D14FF4801022E01A49206843
:1008D000884201D140041CE018492068884201D1B7
:1008E000012016E0154914312068884201D11020FA
:1008F0000FE0124928312068884201D1801508E0B4
:100900000E493C312068884201D1801401E04FF447
:100910008030094980394860012084F8210000BFF7
:10092000002084F8200000BF606B10B12046616B8E
:100930008847284670BD000080000240080402403D
:100940002DE9F847024600239C467BE14FF0010861
:1009500008FA03F4D1F8008008EA0400A0427DD12F
:10096000DFF8F4A2D1F80480A8EB0A09D0453AD008
:1009700014DCB8F1030F50D009DCB8F1000F31D00E
:10098000B8F1010F1CD0B8F1020F49D120E0B8F145
:10099000110F18D0B8F1120F42D11EE0B9F5881F1F
:1009A00025D006DCB9F5803F20D0B9F5801F37D1BE
:1009B0001AE0B9F5001F18D0B9F5041F30D117E0BF
:1009C000D1F80CC02DE0D1F80C8008F1040C28E01F
:1009D000D1F80C8008F1080C23E0D1F80C8008F164
:1009E0000C0C1EE000BF00BF00BF00BF00BF00BF77
:1009F000D1F80880B8F1000F02D14FF0040C0BE0E1
:100A0000D1F80880B8F1010F03D14FF0080C146140
:100A100002E04FF0080C546103E04FF0000C00E0DE
:100A200000BF00BFFF2801D8904601E002F1040892
:100A30004646FF2802D84FEA830803E0A3F10808DE
:100A40004FEA88084746D6F800804FF00F0909FAA8
:100A500007F928EA09080CFA07F900E07AE048EA01
:100A60000908C6F80080D1F8048008F08058B8F171
:100A7000805F6FD100BFDFF8E481D8F8188048F0BC
:100A80000108DFF8D891C9F81880C846D8F818804E
:100A900008F00108CDF8008000BF00BF4FEAB93868
:100AA0004FEA930958F829504FEA83784FEA1879AA
:100AB0004FF00F0808FA09F825EA0805DFF8A081C9
:100AC000424502D14FF0000824E0DFF8988142450A
:100AD00002D14FF001081DE0DFF88C81424502D1C0
:100AE0004FF0020816E0DFF88481424502D14FF052
:100AF00003080FE0DFF87881424502D14FF0040887
:100B000008E0DFF87081424502D14FF0050801E0AE
:100B10004FF006084FEA83794FEA197908FA09F885
:100B200048EA0505DFF850814FEA930948F8295053
:100B3000D1F8048008F48018B8F5801F0BD1DFF8D5
:100B40003C81D8F8008048EA0008DFF83091C9F805
:100B500000800AE075E0DFF82481D8F8008028EAF8
:100B60000008DFF81891C9F80080D1F8048008F473
:100B70000018B8F5001F0ED1DFF8008108F1040855
:100B8000D8F8008048EA0008DFF8F09009F104097D
:100B9000C9F800800DE0DFF8E48008F10408D8F817
:100BA000008028EA0008DFF8D49009F10409C9F8A8
:100BB0000080D1F8048008F40038B8F5003F0ED169
:100BC000DFF8B880A8F10408D8F8008048EA0008E7
:100BD000DFF8A890A9F10409C9F800800DE0DFF85A
:100BE0009C80A8F10408D8F8008028EA0008DFF803
:100BF0008C90A9F10409C9F80080D1F8048008F4A8
:100C00008038B8F5803F0ED1DFF87080A8F1080871
:100C1000D8F8008048EA0008DFF86090A9F10809D8
:100C2000C9F800800DE0DFF85480A8F10808D8F872
:100C3000008028EA0008DFF84490A9F10809C9F803
:100C400000805B1CD1F8008028FA03F8B8F1000F8F
:100C50007FF47CAEBDE8F887000011100010024060
:100C600000080140000C0140001001400014014048
:100C700000180140001C0140080001400804014028
:100C80000148006870470000100000200348006819
:100C900003490978084401490860704710000020A2
:100CA0001800002010B50848006840F01000064900
:100CB0000860032000F0A8F80F2000F007F800F00B
:100CC0002BF8002010BD00000020024070B5044643
:100CD0000E4800784FF47A71B1FBF0F00C490968C6
:100CE000B1FBF0F5284600F0F9FB08B1012070BD1A
:100CF000102C07D200222146501E00F047F805486C
:100D0000046001E00120F2E70020F0E71800002075
:100D10001C0000201400002008B500BF11488069A5
:100D200040F001000F4988610846806900F0010029
:100D3000009000BF00BF00BF0846C06940F080506F
:100D4000C8610846C06900F08050009000BF00BF35
:100D500000BF0549486820F0E06040F0007048603E
:100D600000BF08BD001002400000014001460846D7
:100D7000002809DB00F01F0301229A4043099B0071
:100D800003F1E023C3F8002100BF70472DE9F05FB5
:100D900080460D461646002701F0E6FE0746394616
:100DA0002A46334601F00700C0F1070ABAF1040FE2
:100DB00002D94FF0040A01E0C0F1070AD14600F160
:100DC000040ABAF1070F02D24FF0000A01E0A0F1C5
:100DD000030AD4464FF0010A0AFA09FAAAF1010AF5
:100DE0000AEA020A0AFA0CFA4FF0010B0BFA0CFBA2
:100DF000ABF1010B0BEA030B4AEA0B042146404618
:100E000001F0BAFEBDE8F09F00BF00F00702064BFC
:100E100019684FF6FF031940044B0B4343EA0221C4
:100E2000014B196000BF70470CED00E00000FA05AF
:100E300070B504460D460CB9012070BD5A480068D3
:100E400000F00700A8420ED25748006820F00700C3
:100E50002843554908600846006800F00700A8428A
:100E600001D00120E9E7207800F0020002281DD11E
:100E7000207800F00400042805D14C48406840F474
:100E8000E0604A494860207800F00800082805D151
:100E90004648406840F460504449486043484068D0
:100EA00020F0F000A168084340494860207800F035
:100EB000010078B36068012806D13C48006800F45E
:100EC000003090B90120B8E76068022806D13748A1
:100ED000006800F0007040B90120AEE733480068B8
:100EE00000F0020008B90120A7E73048406820F070
:100EF0000300616808432D494860FFF7C1FE0646BC
:100F000009E0FFF7BDFE801B41F28831884202D91B
:100F1000032092E707E02548406800F00C00616874
:100F2000B0EB810FEDD12048006800F00700A84227
:100F30000ED91D48006820F0070028431A490860B0
:100F40000846006800F00700A84201D0012074E7BD
:100F5000207800F00400042807D11448406820F4E9
:100F6000E060E168084311494860207800F008001B
:100F7000082808D10D48406820F46050216940EAF3
:100F8000C1000A49486000F03FF808494968C1F3C8
:100F90000311074A515CC8400649086006480068CA
:100FA000FFF794FE002048E70020024000100240B6
:100FB0000E2E00081C0000201400002001480068CC
:100FC000704700001C00002000B5FFF7F7FF044940
:100FD0004968C1F30221034A515CC84000BD0000CA
:100FE000001002401E2E000800B5FFF7E7FF04497D
:100FF0004968C1F3C221034A515CC84000BD0000EA
:10100000001002401E2E000870B5002100220024AE
:1010100000230020134D696801F00C05F5B1042D83
:1010200002D0082D19D101E00F4819E00F4DC1F38E
:101030008346AB5D01F4803555B10A4D6D68C5F34B
:1010400040450B4E725D084D5D43B5FBF2F402E086
:10105000084D03FB05F4204602E000BF024800BF34
:1010600000BF70BD0010024000127A00FC2D000885
:101070000C2E000800093D00F8B504460CB901200B
:10108000F8BD207800F00100002878D0F8484068CA
:1010900000F00C0004280CD0F548406800F00C006B
:1010A000082811D1F248406800F48030B0F5803F44
:1010B0000AD1EF48006800F4003000285FD0606873
:1010C00000285CD10120DBE700BF6068B0F5803FFD
:1010D00006D1E748006840F48030E549086028E020
:1010E000606858B9E248006820F48030E049086040
:1010F0000846006820F4802008601AE06068B0F5B7
:10110000A02F0BD1DA48006840F48020D84908604D
:101110000846006840F4803008600AE0D44800685F
:1011200020F48030D24908600846006820F480200E
:10113000086000BF606888B1FFF7A2FD054606E0C1
:10114000FFF79EFD401B642801D9032098E7C8489B
:10115000006800F400300028F2D010E0FFF790FDA6
:10116000054606E0FFF78CFD401B642801D90320EB
:1011700086E7BF48006800F400300028F2D12078EC
:1011800000F00200022857D1B948406800F00C0076
:1011900050B1B748406800F00C00082818D1B44896
:1011A000406800F4803098B9B148006800F002004F
:1011B00020B12069012801D0012061E7AC48006816
:1011C00020F0F800616940EAC100A949086033E0F5
:1011D0002069E8B10120A7490860FFF751FD0546E5
:1011E00006E0FFF74DFD401B022801D9032047E729
:1011F0009F48006800F002000028F2D09C48006878
:1012000020F0F800616940EAC1009949086013E0E4
:10121000002098490860FFF733FD054606E0FFF718
:101220002FFD401B022801D9032029E790480068C0
:1012300000F002000028F2D1207800F00800082811
:101240002DD1A069B8B101208B490860FFF718FDC6
:10125000054606E0FFF714FD401B022801D90320D4
:101260000EE78348406A00F002000028F2D0012017
:1012700001F0CCF813E000207F490860FFF700FD83
:10128000054606E0FFF7FCFC401B022801D90320BD
:10129000F6E67748406A00F002000028F2D1207894
:1012A00000F00400042873D100277148C06900F0E1
:1012B000805070B900BF6E48C06940F080506C49E2
:1012C000C8610846C06900F08050009000BF00BFB0
:1012D00001276A48006800F48070B0B96748006868
:1012E00040F4807065490860FFF7CAFC054606E0D7
:1012F000FFF7C6FC401B642801D90320C0E65F4805
:10130000006800F480700028F2D000BFE068012877
:1013100006D15748006A40F001005549086227E0AD
:10132000E06858B95248006A20F00100504908624C
:101330000846006A20F00400086219E0E068052809
:101340000BD14B48006A40F0040049490862084646
:10135000006A40F0010008620AE04548006A20F097
:101360000100434908620846006A20F00400086250
:1013700000BFE068A0B1FFF783FC054609E0FFF776
:101380007FFC401B41F28831884202D9032077E676
:1013900022E03748006A00F002000028EFD012E097
:1013A000FFF76EFC054608E0FFF76AFC401B41F2C0
:1013B0008831884201D9032062E62D48006A00F096
:1013C00002000028F0D1012F05D12948C06920F082
:1013D00080502749C86100BFE069C8B3244840680D
:1013E00000F00C00082860D0E069022848D10020F5
:1013F00020490866FFF744FC054606E0FFF740FC7D
:10140000401B022801D903203AE61948006800F081
:1014100000700028F2D1206AB0F5803F07D114484F
:10142000406820F40030A168084311494860D4E9BD
:10143000080108430E49496821F4741108430C4916
:10144000486001200B490866FFF71AFC054607E0D3
:101450003DE0FFF715FC401B022801D903200FE6F1
:101460000348006800F000700028F2D02FE0000070
:1014700000100240000042428004424200700040DE
:10148000002014490866FFF7FBFB054606E0FFF75E
:10149000F7FB401B022801D90320F1E50E48006844
:1014A00000F000700028F2D111E0E069012800D1BD
:1014B000E6E50948466806F48031206A814204D195
:1014C00006F47011606A814201D00120D8E5002045
:1014D000D6E50000000042420010024070B504460C
:1014E0002546681EB0F1807F01D301200FE0681E01
:1014F0004FF0E02148610F214FF0FF3001F03CFB3D
:1015000000204FF0E021886107200861002070BDB5
:101510007047704730B502460B4600BF92F83C005A
:10152000012801D1022030BD012082F83C0000BF1B
:10153000022082F83D00106844681068816824F039
:1015400070041868044310684460144D1068A84281
:1015500013D0134D1068A8420FD01068B0F1804F1F
:101560000BD0104D1068A84207D00F4D1068A8424C
:1015700003D00E4D1068A84205D121F080015868B3
:10158000014310688160012082F83D0000BF002007
:1015900082F83C0000BF00BFC5E70000002C0140FE
:1015A000003401400004004000080040000C0040EE
:1015B00010B504460CB9012010BD94F83D0028B9BF
:1015C000002084F83C00204600F026F8022084F831
:1015D0003D00211D206800F06FFF012084F84600C7
:1015E00000BF84F83E0001213F20015540200155F5
:1015F0004120015500BF00BF012084F84200432074
:101600000155442001554520015500BF012084F8B3
:101610003D000020D0E7000038B504462068B0F156
:10162000804F16D100BF1448C06940F00100124934
:10163000C8610846C06900F00100009000BF00BF0B
:10164000002211461C20FFF7A1FB1C20FFF78EFB98
:1016500011E00A49206888420DD100BF0648C069E0
:1016600040F002000449C8610846C06900F0020069
:10167000009000BF00BF38BD0010024000040040D1
:10168000014691F83D00012801D001207047022059
:1016900081F83D000868C06840F001000B68D86020
:1016A000164B0868984213D0154B086898420FD023
:1016B0000868B0F1804F0BD0124B0868984207D0F1
:1016C000114B0868984203D0104B086898420CD11F
:1016D0000868806800F00702062A0CD008680068D5
:1016E00040F001000B68186005E00868006840F0F1
:1016F00001000B6818600020C8E70000002C0140C2
:10170000003401400004004000080040000C00408C
:101710002DE9F04104460D46002700BF94F83C0037
:10172000012802D10220BDE8F081012084F83C00AC
:1017300000BF022084F83D002068866826F0770606
:1017400026F47F46206886602868502833D00CDC59
:10175000202850D004DC00284BD0102851D149E07B
:10176000302849D040284CD139E060282DD070284D
:1017700007D0B0F5805F03D0B0F5005F41D10DE038
:1017800041E0D5E902136A68206800F0F4FE2068A1
:10179000866846F077062068866034E0D5E9021353
:1017A0006A68206800F0E7FE2068806840F48040A6
:1017B0002168886027E0EA686968206800F0CCFF4B
:1017C0005021206800F0E2FE1DE0EA6869682068A8
:1017D00000F0D5FF6021206800F0D8FE13E0EA6831
:1017E0006968206800F0B8FF4021206800F0CEFE54
:1017F00009E000BF00BF00BF2968206800F0C6FEF6
:1018000001E0012700BF00BF012084F83D0000BFB8
:10181000002084F83C0000BF384684E7704710B5CC
:10182000044620680069C0F34000D8B12068C06851
:10183000C0F34000B0B16FF00200216808610120E0
:1018400020772068806900F0030018B12046FFF778
:10185000E5FF05E0204600F0D9F8204600F08DF9BC
:101860000020207720680069C0F38000D8B120688C
:10187000C068C0F38000B0B16FF004002168086157
:10188000022020772068806900F4407018B120465B
:10189000FFF7C4FF05E0204600F0B8F8204600F04E
:1018A0006CF90020207720680069C0F3C000D8B12F
:1018B0002068C068C0F3C000B0B16FF008002168B4
:1018C0000861042020772068C06900F0030018B187
:1018D0002046FFF7A3FF05E0204600F097F82046DA
:1018E00000F04BF90020207720680069C0F3001059
:1018F000D8B12068C068C0F30010B0B16FF010001C
:1019000021680861082020772068C06900F44070D1
:1019100018B12046FFF782FF05E0204600F076F878
:10192000204600F02AF9002020772068006900F0A6
:10193000010058B12068C06800F0010030B16FF0BC
:10194000010021680861204600F092F920680069D2
:10195000C0F3C01058B12068C068C0F3C01030B1E7
:101960006FF08000216808612046FFF7D1FD2068F4
:101970000069C0F3801058B12068C068C0F38010BF
:1019800030B16FF0400021680861204600F0A4F9F2
:1019900020680069C0F3401058B12068C068C0F3E7
:1019A000401030B16FF02000216808612046FFF739
:1019B000B0FD10BD10B586B0044600200290039023
:1019C000049005900E492068884216D100BF0D484A
:1019D000806940F004000B4988610846806900F086
:1019E0000400019000BF00BFC020029002200390BD
:1019F000059002A90448FEF7A3FF06B010BD000041
:101A000000040040001002400008014070472DE92A
:101A1000F04104460D461646002700BF94F83C00EE
:101A2000012802D10220BDE8F081012084F83C00A9
:101A300000BF36B1042E1BD0082E31D00C2E5ED143
:101A400045E02946206800F0ABFD2068806940F041
:101A50000800216888612068806920F004002168FE
:101A6000886120688069296908432168886148E0A5
:101A70002946206800F0CCFD2068806940F40060B1
:101A8000216888612068806920F48060216888610D
:101A900020688069296940EA01202168886130E076
:101AA0002946206800F0F2FD2068C06940F0080077
:101AB0002168C8612068C06920F004002168C861FD
:101AC0002068C069296908432168C86119E029466E
:101AD000206800F017FE2068C06940F400602168AB
:101AE000C8612068C06920F480602168C8612068EE
:101AF000C069296940EA01202168C86101E0012725
:101B000000BF00BF00BF002084F83C0000BF384683
:101B100089E710B504460CB9012010BD94F83D00CA
:101B200028B9002084F83C00204600F025F8022067
:101B300084F83D00211D206800F0BEFC012084F8DF
:101B4000460000BF84F83E0001213F20015540209F
:101B500001554120015500BF00BF012084F842001B
:101B600043200155442001554520015500BF012067
:101B700084F83D000020D0E77047704770B50446F8
:101B80000D4615B994F83E000BE0042D02D13F201C
:101B9000005D06E0082D02D14020005D01E04120FB
:101BA000005D012801D0012070BD1DB9022084F81C
:101BB0003E000EE0042D03D102213F20015508E034
:101BC000082D03D102214020015502E002214120CD
:101BD000015501222946206800F0BCFC1F492068FD
:101BE000884203D01E492068884201D1012000E0CC
:101BF000002028B12068406C40F40040216848640F
:101C000016492068884213D01549206888420FD0B1
:101C10002068B0F1804F0BD012492068884207D06D
:101C200011492068884203D01049206888420CD1AD
:101C30002068806800F00706062E0CD02068006837
:101C400040F001002168086005E02068006840F06D
:101C50000100216808600020A6E70000002C014078
:101C6000003401400004004000080040000C004027
:101C70000168B1F1804F26D113490968012922D1A9
:101C800012490968642903D10121114A116007E052
:101C90000E490968B1F5167F02D100210C4A116086
:101CA0000B49096829B109490968491C074A1160AB
:101CB00004E006490968491E044A1160034909689D
:101CC000044A126851637047040000200800002095
:101CD0000C0000207400002070477047704700001F
:101CE0002DE9F84F0446206805682068C66820681A
:101CF00047694FF00009CA4605F00F09B9F1000F16
:101D00000AD105F0200038B106F0200020B12046AD
:101D100000F099FDBDE8F88FB9F1000F7BD007F016
:101D2000010018B906F49070002874D005F0010085
:101D300030B106F4807018B1606C40F0010060644E
:101D400005F0040030B107F0010018B1606C40F0FC
:101D50000200606405F0020030B107F0010018B124
:101D6000606C40F00400606405F0080048B106F0C3
:101D7000200010B907F0010018B1606C40F00800B5
:101D80006064606C002845D005F0200028B106F0A2
:101D9000200010B1204600F056FD20684069C0F3D5
:101DA000801A606C00F0080010B9BAF1000F2CD056
:101DB000204600F002FD2068406900F0400000B3BA
:101DC00000BF00BF2168143151E8001F21F040001E
:101DD0002168143141E80002002AF3D100BFE06B12
:101DE00050B17748E16B4863E06BFEF7D5FC88B1F2
:101DF000E06B416B88470DE02046FFF76FFF09E07D
:101E000009E02046FFF76AFF04E02046FFF766FF7F
:101E1000002060647EE7206B012877D105F0100078
:101E2000002873D006F010000028FAD000BF002070
:101E3000009020680068009020684068009000BF13
:101E400000BF2068406900F0400000285FD0E06BD0
:101E5000006840681FFA80F8B8F1000F55D0A08DD7
:101E6000404552DDA4F82E80E06B8069202843D0E5
:101E700000BF00BF21680C3151E8001F21F48070C1
:101E800021680C3141E80002002AF3D100BF00BFF5
:101E900000BF2168143151E8001F21F001002168C2
:101EA000143141E80002002AF3D100BF00BF00BF97
:101EB0002168143151E8001F21F0400021681431DD
:101EC00041E80002002AF3D100BF202084F842003C
:101ED0000020206300BF00BF21680C3151E8001FC3
:101EE00021F0100021680C3141E80002002AF3D1F2
:101EF00000BFE06BFEF724FC02206063A08DE28D42
:101F0000801A81B22046FFF7E8FE03E742E0A08D89
:101F1000E18D401A1FFA80F8E08DD0B3B8F1000FC0
:101F200037D000BF00BF21680C3151E8001F21F4F9
:101F3000907021680C3141E80002002AF3D100BF03
:101F400000BF00BF2168143151E8001F21F00100DB
:101F50002168143141E80002002AF3D100BF20209B
:101F600084F842000020206300BF00BF21680C31CC
:101F700051E8001F21F0100021680C3141E80002F7
:101F8000002AF3D100BF0220606341462046FFF7DC
:101F9000A4FEBFE605F0800030B106F0800018B165
:101FA000204600F04DFDB5E605F0400030B106F0EA
:101FB000400018B1204600F036FCABE600BFA9E6B1
:101FC000A727000810B504460CB9012010BDA06970
:101FD00000B100E000BF94F8410028B9002084F867
:101FE0004000204600F02AF8242084F841002068B0
:101FF000C06820F400502168C860204600F0A2FCB0
:102000002068006920F490402168086120684069D8
:1020100020F02A00216848612068C06840F4005020
:102020002168C86000206064202084F8410084F8A2
:1020300042000020606300BFC8E7000010B586B012
:102040000446002002900390049005901E492068E9
:10205000884236D100BF1D48806940F480401B494A
:1020600088610846806900F48040019000BF00BF8D
:1020700000BF0846806940F0040088610846806916
:1020800000F00400019000BF00BF4815029002203C
:1020900003900320059002A90D48FEF751FC4FF470
:1020A0008060029000200390049002A90848FEF787
:1020B00047FC002211462520FEF768FE2520FEF78A
:1020C00055FE06B010BD000000380140001002406F
:1020D000000801402DE9F84F04460E461746994680
:1020E0004FF0000A94F8420020284FD106B117B9EA
:1020F0000120BDE8F88F00206064222084F84200AF
:1021000000202063FEF7BCFD8246A785E785A06816
:10211000B0F5805F04D1206910B90025B04602E017
:1021200035464FF0000829E0534600222021204682
:10213000CDF8009000F0B4FC08B10320D9E745B910
:1021400020684068C0F30800A8F8000008F1020801
:1021500011E0A068B0F5805F03D0A06828B92069BD
:1021600018B920684068287004E02068406800F0D2
:102170007F0028706D1CE08D401EE085E08D0028FA
:10218000D2D1202084F842000020B2E70220B0E73C
:1021900070472DE9F84F04460E46174699464FF012
:1021A000000A94F8410020284AD106B117B901204D
:1021B000BDE8F88F00206064212084F84100FEF71C
:1021C0005FFD8246A784E784A068B0F5805F04D1F4
:1021D000206910B90025B04602E035464FF00008EE
:1021E0001BE05346002280212046CDF8009000F0ED
:1021F00057FC08B10320DBE745B9B8F80000C0F38D
:1022000008002168486008F1020803E02878216886
:1022100048606D1CE08C401EE084E08C0028E0D11A
:102220005346002240212046CDF8009000F038FCB3
:1022300008B10320BCE7202084F841000020B7E764
:102240000220B5E7704700BFFEE7000008B500BFF9
:102250001348806940F01000114988610846806980
:1022600000F01000009000BF00BF00BF084680696A
:1022700040F0200088610846806900F0200000904E
:1022800000BF00BF00BF0846806940F004008861BD
:102290000846806900F00400009000BF00BF08BD40
:1022A0000010024000B587B0002003900490059014
:1022B0000690019002904FF08040144908608F20F2
:1022C000486000211148816041F28731C1600021DE
:1022D00001618161FFF76CF908B1FEF72EFA4FF446
:1022E0008050039003A90948FFF712FA08B1FEF7DE
:1022F00024FA00200190029001A90448FFF70AF98E
:1023000008B1FEF71AFA07B000BD00002C0000204B
:1023100000B58DB0002009900A900B900C900790AA
:1023200008901C216846FDF728FF254825490860CC
:102330009020486000212348816040F2E731C1606D
:10234000002101618161FFF733F908B1FEF7F5F96A
:102350004FF48050099009A91A48FFF7D9F908B13C
:10236000FEF7EBF91748FFF7D4FB08B1FEF7E5F9E4
:1023700000200790089007A91248FFF7CBF808B192
:10238000FEF7DBF97020009000200190029004908D
:10239000002269460B48FFF73AFB08B1FEF7CDF97A
:1023A00060200090042269460648FFF730FB08B120
:1023B000FEF7C3F90348FFF7FDFA0DB000BD0000BA
:1023C000000400407400002010B50B480B49086061
:1023D0004FF4E1304860002108488160C16001612C
:1023E0000C21416100218161C161FFF7EBFD08B162
:1023F000FEF7A3F910BD000000380140BC0000202A
:1024000000BFFEE700BFFEE77047000008B50849BF
:102410000968C9084FF47A72B1FBF2F141430091A7
:1024200000BF00BF00994A1E00920029F9D108BDE3
:102430001C000020704710B5FEF728FC10BD00B549
:102440008FB0282105A8FDF798FE14216846FDF7F6
:1024500094FE0120059000040690002007900120C2
:10246000099002200C90C1030D914FF4E0110E91E0
:1024700005A8FEF701FE08B1FEF75FF90F200090F6
:1024800002200190002002904FF480600390002011
:10249000049002216846FEF7CBFC08B1FEF74DF927
:1024A0000FB000BD7047000010B50248FFF7B7F944
:1024B00010BD00002C00002010B50268204B98428F
:1024C0000ED0204B98420BD0B0F1804F08D01E4B5D
:1024D000984205D01D4B984202D01D4B984203D123
:1024E00022F070024B681A43154B98420ED0154BE0
:1024F00098420BD0B0F1804F08D0134B984205D0D2
:10250000124B984202D0124B984203D122F44072EF
:10251000CB681A4322F080034C6943EA040202604C
:102520008B68C3620B688362054B984202D0054BEF
:10253000984201D10B6903630123436110BD000080
:10254000002C01400034014000040040000800401D
:10255000000C004030B501F01F05012404FA05F31A
:10256000046A9C430462046A01F01F0502FA05F53F
:102570002C43046230BD30B50C46816821F47F41A4
:1025800042EA032525432943816030BD0A4681681C
:1025900021F0700142F00703194381607047000089
:1025A00030B5026A056A25F0010505624368846951
:1025B00024F0700424F003040D682C4322F002027E
:1025C0008D682A43104DA84200D103E00F4DA84268
:1025D00006D100BF22F00802CD682A4322F004028F
:1025E000094DA84202D0094DA84207D123F48073B7
:1025F00023F400734D692B438D692B434360846141
:102600004D684563026230BD002C0140003401403A
:1026100030B5026A056A25F01005056243688469D1
:1026200024F4E04424F440740D6844EA052422F0C4
:1026300020028D6842EA0512124DA84200D103E043
:10264000114DA84207D100BF22F08002CD6842EAB6
:10265000051222F040020B4DA84202D00A4DA842BA
:1026600009D123F4806323F400634D6943EA8503B1
:102670008D6943EA8503436084614D688563026226
:1026800030BD0000002C01400034014030B5026A2A
:10269000056A25F4807505624368C46924F07004F6
:1026A00024F003040D682C4322F400728D6842EA82
:1026B0000522124DA84200D103E0114DA84207D1D6
:1026C00000BF22F40062CD6842EA052222F4806253
:1026D0000A4DA84202D00A4DA84209D123F48053E2
:1026E00023F400534D6943EA05138D6943EA05134A
:1026F0004360C4614D68C563026230BD002C014077
:102700000034014030B5036A056A25F4805505623E
:102710004468C26922F4E04222F440720D6842EA41
:10272000052223F400538D6843EA0533084DA8427F
:1027300002D0084DA84204D124F480444D6944EAF3
:1027400085144460C2614D680564036230BD0000B9
:10275000002C01400034014030B50B461446026A9B
:10276000056A25F001050562816921F0F00141EA61
:10277000041122F00A021A438161026230BD30B5B1
:102780000B461446026A056A25F010050562816948
:1027900021F4704141EA043122F0A00242EA03121E
:1027A0008161026230BD70B505466C6A0020E0852B
:1027B000E0842046FFF792FA70BD00BF00BF0268B8
:1027C0000C3252E8002F22F4907102680C3242E879
:1027D0000013002BF3D100BF00BF00BF026814320A
:1027E00052E8002F22F001010268143242E800137F
:1027F000002BF3D100BF016B01290ED100BF00BF38
:1028000002680C3252E8002F22F0100102680C32EC
:1028100042E80013002BF3D100BF202180F84210C2
:1028200000210163704710B504462068C06820F09D
:1028300040002168C860202084F841002046FFF74E
:1028400001FD002010BDF8B5044694F8420022288E
:1028500075D1A068B0F5805F0CD1206950B9002512
:10286000A66A20684068C0F308003080A06A801C17
:10287000A06215E0A56A0026A068B0F5805F03D0CD
:10288000A06828B9206918B920684068287004E059
:102890002068406800F07F002870A06A401CA06299
:1028A000E08D401E80B2E085002846D12068C068D7
:1028B00020F020002168C8602068C06820F4807083
:1028C0002168C8602068406920F0010021684861E3
:1028D000202084F8420000206063206B012826D16C
:1028E0000020206300BF00BF21680C3151E8001FA9
:1028F00021F0100021680C3141E80002002AF3D1D8
:1029000000BF2068006800F0100010280AD100BF46
:1029100000200090206800680090206840680090C7
:1029200000BF00BFA18D2046FFF7D7F902E0204687
:10293000FFF72EFC0020F8BD01E00020FBE702209D
:10294000F9E7000070B504462168096921F4405197
:10295000E2681143226811612269A168114362692A
:1029600041EA02052168C96841F20C62914329439A
:102970002268D1602168496921F44071A26911433C
:10298000226851612D4A2168914202D1FEF72CFB49
:1029900001E0FEF719FB00EBC00101EB00116268DA
:1029A0009200B1FBF2F100EBC00202EB001263688F
:1029B0009B00B2FBF3F26423B2FBF3F202EBC2031F
:1029C00003EB0212A1EB8201322202EB011164221D
:1029D000B1FBF2F101F0F00100EBC00202EB0012DA
:1029E00063689B00B2FBF3F26423B2FBF3F201EBEA
:1029F000021200EBC00101EB001163689B00B1FB08
:102A0000F3F100EBC00303EB00136668B600B3FB01
:102A1000F6F36426B3FBF6F303EBC30606EB0313EE
:102A2000A1EB8301322303EB01116423B1FBF3F12A
:102A300001F00F0111442268916070BD003801401F
:102A4000014691F84100212828D18868B0F5805FBF
:102A50000BD1086948B90A6A1088C0F308000B68EE
:102A60005860086A801C086205E00B6A581C0862FE
:102A700018780B685860C88C401E80B2C88458B95A
:102A80000868C06820F080000B68D8600868C068DB
:102A900040F040000B68D860002070470220FCE73F
:102AA0002DE9F04104460D4617469846069E34E04F
:102AB000701C88B32EB1FEF7E3F8A0EB0800B0421B
:102AC0002BD900BF00BF21680C3151E8001F21F451
:102AD000D07021680C3141E80002002AF3D100BF18
:102AE00000BF00BF2168143151E8001F21F0010030
:102AF0002168143141E80002002AF3D100BF2020F0
:102B000084F8410084F8420000BF002084F84000AF
:102B100000BF0320BDE8F081FFE72068006828407F
:102B2000A84201D1012000E00020B842C0D000201E
:102B3000F0E7000010B50248FFF7D2F810BD000022
:102B4000BC00002000BFFEE70FB4054B10B503A981
:102B5000044A029800F034F810BC5DF814FB000041
:102B6000312D00082400002002480068C0F3022034
:102B7000704700000CED00E010B5002804DB0A07E8
:102B8000130E054A135406E00A07140E034A00F018
:102B90000F031B1FD45410BD00E400E018ED00E04B
:102BA00002E008C8121F08C1002AFAD17047704716
:102BB000002001E001C1121F002AFBD17047000074
:102BC0002DE9FF4F89B09B460446002506E02528E5
:102BD0000BD05A460B999047641C6D1C2078002836
:102BE000F5D10DB02846BDE8F08F0027B846012288
:102BF000474900E0074314F8013F203B02FA03F085
:102C00000842F7D120782E2819D114F8010F47F087
:102C100004072A280ED06FF02F022078A0F130018F
:102C200009290CD808EB880102EB410100EB0108EF
:102C3000641CF2E70A98641C50F8048B0A90207810
:102C40000028CED0642808D0692806D075281ED068
:102C50005A460B9990476D1C58E00A994FF00A09A3
:102C600001C90A91002802DA40422D2102E039050B
:102C700004D52B218DF82010012103E0F90704D0A1
:102C80002021F7E78A4608AE0DE00021FAE70A990D
:102C90004FF00A0901C90A91F7E74946FDF72EFBF3
:102CA000303106F8011D0028F7D1ADEB060000F128
:102CB0002009780701D44FF00108C84502DDA8EBD0
:102CC000090000E000208046002706E008A85A46D8
:102CD000C05D0B9990476D1C7F1C5745F6DB04E0E7
:102CE00030205A460B9990476D1CB8F10001A8F1AD
:102CF0000108F5DC05E016F8010B5A460B999047E0
:102D00006D1CB9F10001A9F10109F4DC641C65E74F
:102D10000928010038B504464FF6FF7301226946C1
:102D20000248FFF7D7F99DF8000038BDBC0000202D
:102D300038B504460D46E0B20090022301226946F0
:102D40000248FFF726FA204638BD0000BC000020EC
:102D500008B5FDF7A7FFFFF772FBFFF777FAFFF75C
:102D6000A1FAFFF7D5FAFFF72FFB1B48FEF788FC07
:102D70001A48FEF785FC00211748FEF7FFFE0421E4
:102D80001548FEF7FBFE16A0FFF7DEFE18A0FFF7C2
:102D9000DBFE4FF4AF7017490860084600680E4923
:102DA000096848634FF47A700B490968886311E039
:102DB000694611A0FDF7ECF90FA00099FFF7C4FEDA
:102DC0000098C0F1640000EB8000400002490968EF
:102DD000886300BFECE70000740000202C00002096
:102DE00048656C6C6F2C776F726C6421000000007A
:102DF0000D0A0000080000202564000002030405FD
:102E0000060708090A0B0C0D0E0F10100102000036
:102E1000000000000000010203040607080900008A
:102E2000000001020304DDDDDDDDDCBBBBDDDDDD3B
:102E3000DDDDDDDDDDDD9888888888888888777726
:102E4000777777888888855555566666666666669C
:102E500066666668888883333332222222222222E1
:102E600022222228888D0000882E000800000020E1
:102E70002C000000A02B0008B42E00082C0000201D
:102E8000DC040000B02B000830000000030000004C
:102E90000000000000000000000000001000000022
:102EA000010000000024F400000000000000000009
:042EB000000000001E
:0400000508000131BD
:00000001FF
