:020000040800F2
:1000000078040020490100086F150008EB1400086F
:100010006D15000881060008351800080000000072
:100020000000000000000000000000007315000840
:10003000830600080000000071150008751500080F
:100040006301000863010008630100086301000800
:1000500063010008630100086301000863010008F0
:1000600063010008630100086301000863010008E0
:1000700063010008630100086301000863010008D0
:1000800063010008630100086301000863010008C0
:1000900063010008630100086301000863010008B0
:1000A00063010008630100086301000863010008A0
:1000B0006301000863010008630100086301000890
:1000C0006301000863010008630100086301000880
:1000D0006301000829180008630100086301000893
:1000E0006301000863010008630100086301000860
:1000F0006301000863010008630100086301000850
:10010000630100086301000863010008630100083F
:10011000630100086301000863010008630100082F
:10012000630100086301000863010008630100081F
:10013000DFF810D000F0B6F800480047A519000815
:10014000AFF3008078040020064880470648004747
:10015000FEE7FEE7FEE7FEE7FEE7FEE7FEE7FEE777
:10016000FEE7FEE7D715000831010008D2B201E032
:1001700000F8012B491EFBD270470022F6E710B5AC
:1001800013460A4604461946FFF7F0FF204610BD05
:100190000FB400B589B00BA800906A4603480A99CD
:1001A00000F076F809B05DF814FB00002400002090
:1001B0002DE9FF5FD2E901A74FF000089169994648
:1001C0001446DDF838B0464601988847054659EA96
:1001D0000B0005D009E0A169761C01988847054607
:1001E000216A284688470028F5D1681C03D05FEAB9
:1001F000CA7005D015E04FF0FF3004B0BDE8F09FA5
:100200002068011D2160D0F800800AE05FEACA7012
:1002100001D108F8015BA169761C7F1E019888470F
:100220000546002F1ADD681C18D0B9F1000F0DD05B
:10023000E81705EBD060421120F01F0059F822109A
:100240002A1A012090400142E0D107E0BBF1000FE3
:10025000DCD1216A284688470028D7D0E169019877
:100260008847BBF1000F07D1002E05DD5FEACA7099
:1002700002D1002188F80010A068B84203DDBBF16C
:10028000000F03D017B16FF00100B6E73046B4E7B6
:10029000024B9361024BD36100F032B86D19000834
:1002A000E5020008064C074D06E0E06840F0010357
:1002B00094E8070098471034AC42F6D3FFF73CFFB0
:1002C000AC1A0008CC1A0008094910B508784C1C73
:1002D00018B1401E0870205C10BD00210720ABBE85
:1002E000207010BD02490878421C0A707047000057
:1002F0002C000020026811441378016018467047F2
:10030000D160044951610449116200211161114613
:1003100000F00AB8F50200081D030008C0B24FF44F
:10032000F05100F099B900002DE9F34F8BB04FF078
:10033000000801F10C000C464FF0010B46460DF190
:10034000080A01906269012101989047051E2DD08D
:10035000252D2CD0216A8847C0B1626901210198FE
:100360009047216A88470028F7D1411E62690198A9
:10037000904700E0761CA1690B988847216A88475E
:100380000028F7D1E1690B988847DBE7A1690B9852
:1003900088470746A84201D1761CD3E7E1690B984C
:1003A00088477F1C02D1B8F1000F6FD047E10027CA
:1003B00062693D463946019890472A2804D162690E
:1003C0000121019890470125DFF888926269012197
:1003D00001989047A0F130010A290AD24F45E5DC87
:1003E00007EB870100EB4107303FDFD445F01005F4
:1003F000ECE7E90601D46FF000476C280AD04C28DE
:1004000014D0682815D06A280DD074281CD07A28FA
:100410001AD01DE062690121019890476C2802D032
:1004200045F0040514E045F002050DE045F0200517
:100430000AE06269012101989047682802D045F0DE
:10044000080505E045F400656269012101989047BF
:10045000C4E9015765283DD019DC58287AD00CDC56
:10046000452837D004DC252826D0412831D131E079
:1004700046282FD047282CD12CE05B2877D0612844
:1004800028D063287CD0642823D15AE0D1E06F289B
:1004900048D008DC66281DD067281BD0692821D0E9
:1004A0006E2816D127E0702845D0732868D07528AB
:1004B00047D078280DD14DE0A1690B9888470546B3
:1004C00025283FF469AFE1690B9888476D1C3FF41C
:1004D0006AAFB4E023466A466FF001000B99AFF3B0
:1004E00000809FE045F040006060A80723464FF081
:1004F000000236D43EE0E8077FF447AF2068011DD4
:1005000021600068290501D506701BE7290701D580
:10051000068017E7A90703D5F117C0E9006111E7C5
:1005200006600FE745F040006060A80723464FF0E3
:10053000080216D41EE040F60E0125EA01006060B4
:1005400016E045F040006060A80723464FF00A021D
:1005500007D40FE045F040006060A80708D52346A7
:1005600010226FF001000B99AFF300805AE007E012
:10057000234610226FF001000B99AFF3008051E089
:100580004FF000094F464B46632802D05B2807D046
:1005900041E02079C00601D40120A06001273AE0A3
:1005A00062690121019890475E2805D14FF0010949
:1005B0006269494601989047216939B900210A4684
:1005C000534643F82120491C0829FADBB0B32169BE
:1005D00069B9C11700EBD16253110AEB830122F014
:1005E0001F02821A01200B68904003430B6062696E
:1005F0000121019890475D28E8D1B9F1000F09D099
:100600000020514651F82020D24341F82020401CC0
:100610000828F7DB02AB224600976FF001000B9928
:10062000FFF7C6FD00280CDA401C08D1BBF1000F13
:1006300005D04FF0FF300DB0BDE8F08FFFE740462A
:10064000F9E7E90701D108F1010806444FF0000B72
:1006500078E60000CCCCCC0C7F2801D9002208E041
:10066000064A02EB5002C007127800D1120902F0CC
:100670000F02012090400840704700006A1A0008ED
:10068000FEE7704710B590F821100022022905D02E
:100690000421816380F82020012010BD01680B68CF
:1006A00023F00E030B6001680B6823F001030B605D
:1006B00090F84030C46B012101FA03F3636080F8C5
:1006C000211080F82020104610BD00002DE9F05FB9
:1006D00090F821100024022903D004218163012411
:1006E00085E001680A6822F00E020A6001680A6863
:1006F00022F001020A603F4E3E4FB215DFF8F4C00F
:10070000DFF8F090DFF8ECA0DFF8E8B0DFF8E4E025
:100710000168783F13011502ACF1640CA9F150098E
:10072000AAF13C0AABF1280BAEF1140E4FF480187D
:10073000B14227D9B9420ED0614512D049451DD0EA
:10074000514518D0594518D0714501D1424615E0A0
:10075000294EB14201D1012210E0274E1436B14298
:1007600001D110220AE0244E2836B14206D0224A96
:100770003C32914201D11A4600E02A461E49091F27
:100780000A602BE0B94213D0614517D0494522D009
:1007900051451DD059451DD0714501D142461AE041
:1007A000B14202D14FF0807215E0134EB14201D137
:1007B000012210E0104E1436B14201D110220AE09D
:1007C0000D4E2836B14206D00B4A3C32914201D13F
:1007D0001A4600E02A46074980394A60012180F81C
:1007E0002110002180F82010416B01B1884720467C
:1007F000BDE8F09F80000240080402402DE9F84F58
:10080000DFF8C8910024A9F1040B23460F2709F152
:10081000040AABF1040ED1E00125A54006EA050269
:10082000AA4276D1DFF8A8C14E68A6EB0C0866454F
:100830002BD00DDC032E34D005DC36B3012E19D0BD
:10084000022E2FD11BE0112E16D0122E2AD119E024
:10085000B8F5881F19D006DCB8F5803F15D0B8F57B
:10086000801F1FD111E0B8F5001F0ED0B8F5041F8E
:1008700018D10AE0CB6815E0CB681B1D12E0CB68ED
:1008800008330FE0CB680C330CE08B682BB1012BE5
:100890004FF0080303D0456104E0042302E0056142
:1008A00000E00023FF2A01D8064601E000F104061B
:1008B0004FEA840501D9A5F12005D6F8008007FA92
:1008C00005FC28EA0C0803FA05F548EA0508C6F80D
:1008D00000804D68ED0070D53E4DAE6946F00106D2
:1008E000AE61AD6924F0030605F0010500953A4DAF
:1008F00006EB050CDCF80850A607360F07FA06F8D9
:1009000025EA0805DFF8D480404503D14FF0000800
:1009100025E052E0DFF8C880404502D14FF00108E1
:100920001DE0DFF8C080404502D14FF0020816E01C
:10093000DFF8B480404502D14FF003080FE0DFF844
:10094000AC80404502D14FF0040808E0DFF8A080F9
:10095000404502D14FF0050801E04FF0060808FAC3
:1009600006F848EA0508CCF808804D68D9F8006018
:10097000ED024D4601D5164300E096432E604D68CA
:10098000DAF80060AD02554601D5164300E0964303
:100990002E604D68DBF80060AD035D4601D516435F
:1009A00000E096432E604D68DEF80060ED0375466A
:1009B00001D5164300E096432E60641C0A68164673
:1009C000E2407FF429AFBDE8F88F00000804014041
:1009D000000011100010024000000140000801401A
:1009E000000C0140001001400014014000180140BB
:1009F000001C0140C26821EA02030A4043EA0241A6
:100A0000016170470AB1016170470904FBE700000A
:100A10000148806870470000140000200248816887
:100A2000027811448160704714000020074810B517
:100A3000016841F010010160032000F075F80F20FB
:100A400000F006F800F024F8002010BD002002405D
:100A500070B50D4D04464FF47A712878B1FBF0F073
:100A60000A490968B1FBF0F000F0DCFA48B9102C33
:100A700007D200222146501E00F036F800206C609C
:100A800070BD012070BD0000140000202000002077
:100A90000C4808B5816941F001018161816901F06B
:100AA00001010091C16941F08051C161C06900F04C
:100AB000805000900448416821F0E06141F00071ED
:100AC000416008BD0010024000000140002809DB21
:100AD00000F01F02012191404009800000F1E02058
:100AE000C0F8001170470000F0B40E4B1B680C46B4
:100AF000C3F30223C3F10705042D00D90425191DF2
:100B0000072901D2002300E0DB1E012606FA05F1C9
:100B1000491E214099409E40761E16403143F0BC4C
:100B200000F09ABE0CED00E0064900F007020868EC
:100B30004FF6FF03184040EA0220034A10430860C2
:100B4000704700000CED00E00000FA052DE9F047C9
:100B50000F46050061D0434E306800F00700B842F0
:100B600009D2306820F0070038433060306800F068
:100B70000700B84251D128683B4C810712D5400785
:100B800003D5606840F4E06060602878000703D512
:100B9000606840F4605060606068A96820F0F00010
:100BA000084360602878C00728D06868012810D002
:100BB0002168022810D0890700292EDA616821F007
:100BC000030101436160FFF723FF804641F288394A
:100BD0000DE021688903EFE78901EDE7FFF718FFD2
:100BE000A0EB0801494502D90320BDE8F087606801
:100BF000696800F00C00B0EB810FEFD1306800F0B5
:100C00000700B8420BD9306820F007003843306045
:100C1000306800F00700B84201D00120E5E72878ED
:100C2000400705D56068E96820F4E060084360602B
:100C30002878000706D56068296920F4605040EAEA
:100C4000C100606000F038F86168084AC1F3031120
:100C5000515CC8400649086006480068FFF7F8FE86
:100C60000020C2E70020024000100240521A000893
:100C70002000002018000020044805490068496849
:100C8000044AC1F30221515CC84070472000002093
:100C900000100240621A00080448054900684968CB
:100CA000044AC1F3C221515CC840704720000020B3
:100CB00000100240621A00080E4A51680E4801F006
:100CC0000C03042B11D0082B0FD10C48C1F3834324
:100CD000C903C05C0AD55168084AC1F34041921E5D
:100CE000515C054A5043B0FBF1F07047044948435A
:100CF000704700000010024000127A00421A0008FB
:100D000000093D002DE9F84F040070D02078C04D57
:100D1000C00749D06868C0F38100012807D068681F
:100D2000C0F38100022809D16868C00306D528688D
:100D3000800339D560680028E7D035E06068B0F5F9
:100D4000803F0BD010B1B0F5A02F11D0286820F44F
:100D500080302860286820F4802002E0286840F471
:100D600080302860606890B1FFF752FE06460AE0C6
:100D7000286840F480202860F0E700BFFFF748FEB5
:100D8000801B642873D828688003F7D50CE0FFF730
:100D90003FFE064605E000BFFFF73AFE801B6428D1
:100DA000F0D828688003F7D420789A4E80074FF057
:100DB00001094FF0000839D5686810F00C0F07D012
:100DC0006868C0F38100022809D16868C00306D4AE
:100DD0002868800714D52069012808D110E020690F
:100DE000B0B1C6F80090FFF713FE074605E00AE130
:100DF000FFF70EFEC01B0228C4D828688007F7D56D
:100E00002868616920F0F80040EAC10028600DE020
:100E1000C6F80080FFF7FCFD074604E0FFF7F8FD89
:100E2000C01B022823D828688007F7D42078000741
:100E30002CD57948A169D9B1C0F80090FFF7E8FD39
:100E4000074604E0FFF7E4FDC01B02280FD8686ADC
:100E50008007F7D571484FF4FA510068B0FBF1F004
:100E6000009000BF0098411E0091FAD20EE080E091
:100E7000C0F80080FFF7CCFD074604E0FFF7C8FD8F
:100E8000C01B022875D8686A8007F7D4207840070D
:100E900060D5E8690027C00008D4E86940F08050B8
:100EA000E861E869012700F0805000905C48016823
:100EB000C90513D40168834641F480710160FFF7CE
:100EC000A7FD824606E000BFFFF7A2FDA0EB0A00E7
:100ED00064284ED8DBF80000C005F5D5E06801288D
:100EE0000AD008B1052813D0286A20F00100286232
:100EF000286A20F0040002E0286A40F0010028621D
:100F0000E06841F2883B98B1FFF782FD82460BE032
:100F1000286A40F004002862EEE700BFFFF778FD82
:100F2000A0EB0A0159455AD8286A8007F6D50CE08B
:100F3000FFF76EFD824605E0FFF76AFDA0EB0A01B0
:100F400059454CD8286A8007F6D41FB1E86920F0CB
:100F50008050E861E06988B36968C1F381010229C2
:100F600044D00228C6F8608004D0FFF751FD044643
:100F700038E034E0FFF74CFD074604E0FFF748FD9A
:100F8000C01B02282BD828688001F7D4206AB0F54E
:100F9000803F05D16868A16820F40030084368608C
:100FA000D4E908010843696821F4741108436860B2
:100FB000C6F86090FFF72CFD044606E025E000BF70
:100FC000FFF726FD001B022809D828688001F7D505
:100FD0001BE000BFFFF71CFD001B022802D9032005
:100FE000BDE8F88F28688001F4D40EE00128F7D01E
:100FF0006868226A00F48031914204D1616A00F489
:101000007010884201D00120EAE70020E8E70000E4
:1010100000100240000042428004424220000020B2
:101020000070004010B5401EB0F1807F01D3012058
:1010300010BD4FF0E02460610F21601700F00CFC40
:101040000020A06107202061002010BD704770477C
:10105000F8B5016804460868CA684B6910F00F0FBC
:101060004FF0000559D003F0010602F490773743A2
:1010700065D0C10705D0D10503D5616C41F00101F0
:101080006164410705D5D90703D0616C41F00201C5
:101090006164810705D5D90703D0616C41F0040173
:1010A0006164010707D502F02001314303D0616C70
:1010B00041F008016164616C00293AD0800604D5D2
:1010C000900602D5204600F0B6FA20684069616CAF
:1010D000C0F38010090700D460B3204600F084FA02
:1010E00020684069400621D52068143050E8001F70
:1010F00021F0400140E80012002AF5D1E06BA8B1D0
:101100006D494163E06BFFF7E1FA002811D0E06B15
:10111000416B01B0BDE8F040084783060FD5930648
:101120000DD52046BDE8F84000F085BA2046FFF70F
:101130008EFFF8BD2046FFF78AFF6564F8BD266B79
:101140002023012E7CD1C6067AD5D60678D508682C
:101150004868009048694FF00206400640D5E16BB0
:10116000086840680004000CE8D0A28D8242E5D9EE
:10117000E085886920282DD020680C3050E8001FB9
:1011800021F4807140E80012002AF5D12068143063
:1011900050E8001F21F0010140E80012002AF5D1BB
:1011A0002068143050E8001F21F0400140E8001290
:1011B000002AF5D184F84230256320680C3050E8CD
:1011C000001F21F0100140E80012002AF5D1E06B69
:1011D000FFF758FA6663A08DE18D401A81B22AE0CC
:1011E000A08DE18D401A81B2E08D0028A6D00029A3
:1011F000A4D022680C3252E8000F20F4907042E82C
:101200000007002FF5D12068143050E8002F22F09D
:10121000010240E80027002FF5D184F84230256311
:1012200020680C3050E8002F22F0100240E8002324
:10123000002BF5D166632046FFF708FFF8BDFFE7F6
:1012400005062BD5150629D594F841002128F5D19E
:10125000A068B0F5805F01D12069B0B1206A411C5F
:101260002162216800784860E08C401E0004000C78
:10127000E084E3D12068C16821F08001C16020686A
:10128000C16841F04001C160D8E7206A0088C0F31E
:1012900008004860206A801C2062E5E74006CDD542
:1012A0005006CBD5CA68204622F04002CA6084F8B6
:1012B000413000F019F9C1E7D915000870B50400F4
:1012C00004D094F84100002510B106E0012070BD63
:1012D00084F84050204600F023F8242084F8410090
:1012E0002068C16821F40051C160204600F004FA72
:1012F0002068016921F4904101612068416921F071
:101300002A0141612068C16841F40051C1606564EF
:10131000202084F8410084F842006563002070BDFD
:1013200030B585B0002400940194029403940068C1
:10133000184988422CD11848816941F48041816163
:10134000816901F480410491816941F00401816166
:101350008069124D00F0040004904FF4007000907A
:10136000022001900320039069462846FFF746FAC1
:101370002815CDE90004694628460294FFF73EFA95
:10138000002211462520FFF7AFFB2520FFF79EFB2B
:1013900005B030BD00380140001002400008014097
:1013A0002DE9F843044690F84200994616460D464A
:1013B000202802D00220BDE8F883ADB1A6B10020FC
:1013C0006064222184F842102063FFF721FBA68588
:1013D0008046E685A0684FF48057B84201D1206965
:1013E00020B12E46002526E00120E4E7002622E079
:1013F0004346002220212046CDF8009000F0D8F985
:1014000008B10320D7E726B1A068B8421BD038B195
:1014100008E020684068C0F3080025F8020B07E0E8
:10142000206980B12068406800F07F0006F8010B59
:10143000E08D401EE085E08D0028D9D1202084F881
:1014400042000020B7E720684068EFE770472DE9C9
:10145000F843044690F841001F4616460D462028E2
:1014600002D00220BDE8F8837DB176B1002060642F
:10147000212084F84100FFF7CBFAA6848046E68459
:10148000A068B0F5805F02D003E00120EAE72069A0
:1014900010B12E4600250EE000260CE080212046EB
:1014A00000F086F9A0B9AEB116F8010B21684860CA
:1014B000E08C401EE084E08C43464FF00002009731
:1014C0000028EBD14FF04001204600F071F930B117
:1014D0000320C7E735F8020BC0F30800E6E7202039
:1014E00084F841000020BDE77047FEE770B586B084
:1014F00000241C480094019402940394816941F0F3
:1015000010018161816901F010010491816941F04C
:1015100020018161816901F020010491816941F01C
:1015200004018161816901F004010491816941F044
:10153000080181618069012200F008000A4E15024D
:10154000049029463046FFF75DFA01200095CDE969
:1015500001040220039069463046FFF74FF906B0B8
:1015600070BD000000100240000C0140FEE7FEE7E5
:1015700070477047FFF752BA30B58FB028216846E0
:10158000FEF7FBFD14210AA8FEF7F7FD0121080470
:10159000CDE900100024029402250491CDE9075002
:1015A0004FF4E01009906846FFF7ACFB08B172B643
:1015B000FEE70F20CDE90A054FF48060CDE90C402D
:1015C00002210AA80E94FFF7C1FA002801D072B6D2
:1015D000FEE70FB030BD704710B5406A0021C185ED
:1015E000C184FFF734FD10BD01680C3151E8002FB4
:1015F00022F4907241E80023002BF5D101681431E8
:1016000051E8002F22F0010241E80023002BF5D120
:10161000016B012909D101680C3151E8002F22F03A
:10162000100241E80023002BF5D1202180F8421060
:1016300000210163704708B590F84210222901D0BB
:10164000022008BD82684FF480539A4201D101699B
:1016500021B1816A9A421BD04AB10AE00268816ACC
:101660005268C2F308020A80816A891C08E0026994
:1016700072B10268526802F07F020A70816A491CE6
:101680008162C18D491E0904090CC18503D01BE08C
:1016900002685268F1E70168CA6822F02002CA6055
:1016A0000168CA6822F48072CA6001684A6922F03F
:1016B00001024A61202180F8421000214163026B3F
:1016C000012A03D0FFF7C2FE002008BD01630168B4
:1016D0000C3151E8002F22F0100241E80023002BCA
:1016E000F5D101680A68D20602D50A6849680091F6
:1016F000818DFFF7ABFCE7E770B504460068016930
:10170000E26821F44051114301612169A068084356
:10171000616908432168CA6841F20C639A43024335
:10172000CA6020684169A26921F440711143416196
:101730001E492068884202D1FFF7AEFA01E0FFF7A8
:101740009BFA00EBC00101EB00126068642180008D
:10175000B2FBF0F3B3FBF1F36FF018067343B2FB87
:10176000F0F5B2FBF0F605EB8305322303EB05152C
:10177000B5FBF1F5B6FBF1F605F0F00505EB061546
:10178000B2FBF0F6B2FBF0F0B0FBF1F06FF0180234
:10179000504306EB800003EB0010B0FBF1F0216832
:1017A00000F00F002844886070BD00000038014040
:1017B0002DE9F041984617460E460446069D27E05F
:1017C000681C25D02DB1FFF723F9A0EB0800A84233
:1017D0001ED920680C3050E8001F21F4D07140E879
:1017E0000012002AF5D12068143050E8001F21F0C3
:1017F000010140E80012002AF5D1202084F84100C0
:1018000084F84200002084F840000320BDE8F08105
:101810002068006836EA000004D00020B842CFD02B
:101820000020F3E70120F9E70148FFF711BC0000B1
:1018300030000020FEE700000FB4054B10B503A9EF
:10184000044A029800F027F810BC5DF814FB000071
:1018500089190008280000200907090E002804DB68
:1018600000F1E02080F80014704700F00F0000F154
:10187000E02080F8141D704702E008C8121F08C15C
:10188000002AFAD170477047002001E001C1121F01
:10189000002AFBD170472DE9F84F994692468846B9
:1018A0000546002706E025280AD051464A469047BB
:1018B0006D1C7F1C28780028F5D13846BDE8F88FCC
:1018C000002315F8011F18462E2915D115F8011F00
:1018D00004232A290DD06FF02F022978A1F13004BA
:1018E000092C09D800EB800002EB400008446D1C75
:1018F000F3E758F8040B6D1C2A78002ADDD0632A20
:1019000007D0732A0FD0104651464A4690477F1C95
:101910002AE018F8042B8DF8002000218DF8011022
:101920006E46012103E058F8046B4FF0FF315A076F
:101930004FF0000401D409E0641C84420BDA8C42AD
:10194000FADB325D002AF7D105E0641C8C42FCDB37
:10195000305D0028F9D1274404E016F8010B514608
:101960004A469047641EF8D26D1CA3E708B54FF6AF
:10197000FF73012269460348FFF712FD9DF800003E
:1019800008BD00003000002038B504468DF8000086
:101990000223012269460248FFF759FD204638BD5F
:1019A00030000020FFF742F8FFF7E6FDFFF79EFD4D
:1019B000174816490C2201604FF4E13141600021C3
:1019C0008160C160C0E904128161C161FFF776FCEA
:1019D00008B172B6FEE70FA0FFF72EFF11A0FFF7C8
:1019E0002BFF114E114D4FF480740F4910A0FEF7DC
:1019F000CFFB3078392803D121462846FEF7FAFF7D
:101A000009490DA0FFF718FFEFE70000003801407B
:101A10003000002048656C6C6F2C776F726C64210D
:101A2000000000000D0A000000000020000C014032
:101A3000252A36732573000025730D0A0000000067
:101A4000010202030405060708090A0B0C0D0E0F1C
:101A5000101000000000000000000102030406074F
:101A600008090000000001020304DDDDDDDDDCBB50
:101A7000BBDDDDDDDDDDDDDDDDDD988888888888A6
:101A8000888877777777778888888555555666660A
:101A900066666666666666688888833333322222A5
:101AA0002222222222222228888D0000CC1A00081D
:101AB000000000203000000078180008FC1A000820
:101AC00030000020480400008818000830000000A2
:101AD0000000000000000000000000000000000006
:101AE0000100000010000000000000000024F400CD
:0C1AF000000000000000000000000000EA
:0400000508000131BD
:00000001FF
